:020000040800F2
:1000000000000220112B0008F51E0008F71E000852
:10001000F91E0008FB1E0008FD1E0008000000007D
:10002000000000000000000000000000918D0008AA
:10003000FF1E000800000000318E0008011F0008AC
:10004000612B0008612B0008612B0008612B000860
:10005000612B0008612B0008171F0008612B0008A6
:10006000612B0008211F00082B1F0008612B0008CE
:10007000351F0008612B0008612B0008451F000890
:10008000612B0008612B0008612B0008612B000820
:100090009DCD0008F1CF0008612B0008551F000816
:1000A000612B0008612B0008612B0008612B000800
:1000B000612B0008612B0008612B0008612B0008F0
:1000C000612B0008612B0008612B0008612B0008E0
:1000D000612B0008ADF70008612B0008BDE800089F
:1000E000612B0008612B0008612B0008612B0008C0
:1000F000612B0008612B0008612B0008A50A01088C
:10010000612B0008612B0008612B0008612B00089F
:10011000612B0008612B0008612B0008612B00088F
:10012000612B0008611F0008A1C40008711F0008AE
:10013000612B0008612B0008612B0008612B00086F
:1001400079D10008612B0008612B0008811F00088D
:10015000911F0008A11F0008B11F0008F5F6000854
:10016000612B0008612B0008612B0008612B00083F
:10017000612B0008612B0008612B000800000000C3
:08018000612B0008612B00084F
:1001C00010B5054C237833B9044B13B10448AFF391
:1001D00000800123237010BD2806002000000000CD
:1001E0006C81010808B5034B1BB103490348AFF309
:1001F000008008BD000000002C0600206C81010872
:1002000081F0004102E000BF83F0004330B54FEAC7
:1002100041044FEA430594EA050F08BF90EA020F34
:100220001FBF54EA000C55EA020C7FEA645C7FEAC7
:10023000655C00F0E2804FEA5454D4EB5555B8BFEA
:100240006D420CDD2C4480EA020281EA030382EA5B
:10025000000083EA010180EA020281EA0303362DED
:1002600088BF30BD11F0004F4FEA01314FF4801CC0
:100270004CEA113102D0404261EB410113F0004FD2
:100280004FEA03334CEA133302D0524263EB430389
:1002900094EA050F00F0A780A4F10104D5F1200E27
:1002A0000DDB02FA0EFC22FA05F2801841F1000182
:1002B00003FA0EF2801843FA05F359410EE0A5F156
:1002C00020050EF1200E012A03FA0EFC28BF4CF087
:1002D000020C43FA05F3C01851EBE37101F000453D
:1002E00007D54FF0000EDCF1000C7EEB00006EEB4A
:1002F0000101B1F5801F1BD3B1F5001F0CD34908D4
:100300005FEA30004FEA3C0C04F101044FEA44522A
:1003100012F5800F80F09A80BCF1004F08BF5FEAB1
:10032000500C50F1000041EB045141EA050130BD91
:100330005FEA4C0C404141EB0101013C28BFB1F5A3
:10034000801FE9D291F0000F04BF01460020B1FAEE
:1003500081F308BF2033A3F10B03B3F120020CDAC1
:100360000C3208DD02F1140CC2F10C0201FA0CF09F
:1003700021FA02F10CE002F11402D8BFC2F1200C04
:1003800001FA02F120FA0CFCDCBF41EA0C019040BA
:10039000E41AA2BF01EB0451294330BD6FEA040403
:1003A0001F3C1CDA0C340EDC04F11404C4F12002EE
:1003B00020FA04F001FA02F340EA030021FA04F300
:1003C00045EA030130BDC4F10C04C4F1200220FA57
:1003D00002F001FA04F340EA0300294630BD21FA95
:1003E00004F0294630BD94F0000F83F4801306BF5B
:1003F00081F480110134013D4EE77FEA645C18BF4F
:100400007FEA655C29D094EA050F08BF90EA020FE5
:1004100005D054EA000C04BF1946104630BD91EADD
:10042000030F1EBF0021002030BD5FEA545C05D1E0
:100430004000494128BF41F0004130BD14F580041F
:100440003CBF01F5801130BD01F0004545F0FE4193
:1004500041F470014FF0000030BD7FEA645C1ABFC8
:10046000194610467FEA655C1CBF0B46024650EAFF
:10047000013406BF52EA033591EA030F41F400212B
:1004800030BD00BF90F0000F04BF0021704730B5B1
:100490004FF4806404F132044FF000054FF0000186
:1004A00050E700BF90F0000F04BF0021704730B547
:1004B0004FF4806404F1320410F0004548BF40421C
:1004C0004FF000013EE700BF42004FEAE2014FEA71
:1004D00031014FEA02701FBF12F07F4393F07F4F4C
:1004E00081F06051704732F07F4208BF704793F04F
:1004F0007F4F04BF41F40021704730B54FF4607462
:1005000001F0004521F000411CE700BF50EA010264
:1005100008BF704730B54FF000050AE050EA01020D
:1005200008BF704730B511F0004502D5404261EB7D
:1005300041014FF4806404F132045FEA915C3FF4BE
:10054000D8AE4FF003025FEADC0C18BF03325FEA5B
:10055000DC0C18BF033202EBDC02C2F1200300FA0C
:1005600003FC20FA02F001FA03FE40EA0E0021FA31
:1005700002F11444BDE600BF4FF0FF3C06E000BFAF
:100580004FF0010C02E000BF4FF0010C4DF804CD1C
:100590004FEA410C7FEA6C5C4FEA430C18BF7FEADC
:1005A0006C5C1BD001B050EA410C0CBF52EA430C0A
:1005B00091EA030F02BF90EA020F0020704710F18A
:1005C000000F91EA030F58BF994208BF90422CBF19
:1005D000D8176FEAE37040F0010070474FEA410C12
:1005E0007FEA6C5C02D150EA013C07D14FEA430C30
:1005F0007FEA6C5CD6D152EA033CD3D05DF8040BA1
:10060000704700BF8446104662468C4619466346D2
:1006100000E000BF01B5FFF7B7FF002848BF10F1A9
:10062000000F01BD4DF808EDFFF7F4FF0CBF0120EE
:1006300000205DF808FB00BF4DF808EDFFF7EAFF6A
:1006400034BF012000205DF808FB00BF4DF808ED25
:10065000FFF7E0FF94BF012000205DF808FB00BF1A
:100660004DF808EDFFF7CEFF94BF012000205DF8A4
:1006700008FB00BF4DF808EDFFF7C4FF34BF0120B1
:1006800000205DF808FB00BF4FEA4102B2F1E043F1
:1006900024BFB3F5001CDCF1FE5C0DD901F0004C69
:1006A0004FEAC0024CEA5070B2F1004F40EB8300B9
:1006B00008BF20F00100704711F0804F21D113F1E5
:1006C0003872BCBF01F00040704741F480114FEA1E
:1006D0005252C2F11802C2F1200C10FA0CF320FAA7
:1006E00002F018BF40F001004FEAC1234FEAD323C4
:1006F00003FA0CFC40EA0C0023FA02F34FEA43032E
:10070000CCE77FEA625307D150EA01331EBF4FF0B6
:10071000FE4040F44000704701F0004040F0FE40D1
:1007200040F40000704700BF53B94AB9002908BF20
:1007300000281CBF4FF0FF314FF0FF3000F074B9BC
:10074000ADF1080C6DE904CE00F006F8DDF804E028
:10075000DDE9022304B070472DE9F047089D044607
:100760008E46002B4DD18A42944669D9B2FA82F264
:1007700052B101FA02F3C2F1200120FA01F10CFAA0
:1007800002FC41EA030E94404FEA1C48210CBEFBD8
:10079000F8F61FFA8CF708FB16E341EA034306FB61
:1007A00007F199420AD91CEB030306F1FF3080F0F0
:1007B0001F81994240F21C81023E63445B1AA4B23D
:1007C000B3FBF8F008FB103344EA034400FB07F7DF
:1007D000A7420AD91CEB040400F1FF3380F00A8120
:1007E000A74240F207816444023840EA0640E41B15
:1007F00000261DB1D4400023C5E900433146BDE8C1
:10080000F0878B4209D9002D00F0EF800026C5E962
:10081000000130463146BDE8F087B3FA83F6002E7A
:100820004AD18B4202D3824200F2F980841A61EBF2
:10083000030301209E46002DE0D0C5E9004EDDE710
:1008400002B9FFDEB2FA82F2002A40F09280A1EBF8
:100850000C014FEA1C471FFA8CFE0126200CB1FB4D
:10086000F7F307FB131140EA01410EFB03F0884246
:1008700008D91CEB010103F1FF3802D2884200F2D3
:10088000CB804346091AA4B2B1FBF7F007FB101165
:1008900044EA01440EFB00FEA64508D91CEB040403
:1008A00000F1FF3102D2A64500F2BB800846A4EB5E
:1008B0000E0440EA03409CE7C6F12007B34022FA49
:1008C00007FC4CEA030C20FA07F401FA06F31C4378
:1008D000F9404FEA1C4900FA06F3B1FBF9F8200C85
:1008E0001FFA8CFE09FB181140EA014108FB0EF0CB
:1008F000884202FA06F20BD91CEB010108F1FF3A1B
:1009000080F08880884240F28580A8F10208614426
:10091000091AA4B2B1FBF9F009FB101144EA014134
:1009200000FB0EFE8E4508D91CEB010100F1FF34DF
:100930006CD28E456AD90238614440EA0840A0FB77
:100940000294A1EB0E01A142C846A64656D353D04D
:100950005DB1B3EB080261EB0E0101FA07F722FA71
:1009600006F3F1401F43C5E9007100263146BDE89A
:10097000F087C2F12003D8400CFA02FC21FA03F3FD
:10098000914001434FEA1C471FFA8CFEB3FBF7F07E
:1009900007FB10360B0C43EA064300FB0EF69E42A3
:1009A00004FA02F408D91CEB030300F1FF382FD23C
:1009B0009E422DD9023863449B1B89B2B3FBF7F6E4
:1009C00007FB163341EA034106FB0EF38B4208D9BD
:1009D0001CEB010106F1FF3816D28B4214D9023EFE
:1009E0006144C91A46EA004638E72E46284605E71C
:1009F0000646E3E61846F8E64B45A9D2B9EB0208ED
:100A000064EB0C0E0138A3E74646EAE7204694E77C
:100A10004046D1E7D0467BE7023B614432E73046AF
:100A200009E76444023842E7704700BF844641EA60
:100A3000000313F003036DD1403A41D351F8043B56
:100A400040F8043B51F8043B40F8043B51F8043BA8
:100A500040F8043B51F8043B40F8043B51F8043B98
:100A600040F8043B51F8043B40F8043B51F8043B88
:100A700040F8043B51F8043B40F8043B51F8043B78
:100A800040F8043B51F8043B40F8043B51F8043B68
:100A900040F8043B51F8043B40F8043B51F8043B58
:100AA00040F8043B51F8043B40F8043B51F8043B48
:100AB00040F8043B51F8043B40F8043B403ABDD2B7
:100AC000303211D351F8043B40F8043B51F8043B59
:100AD00040F8043B51F8043B40F8043B51F8043B18
:100AE00040F8043B103AEDD20C3205D351F8043BE8
:100AF00040F8043B043AF9D2043208D0D2071CBFB4
:100B000011F8013B00F8013B01D30B8803806046DC
:100B1000704700BF082A13D38B078DD010F0030352
:100B20008AD0C3F10403D21ADB071CBF11F8013BC2
:100B300000F8013B80D331F8023B20F8023B7BE711
:100B4000043AD9D3013A11F8013B00F8013BF9D23C
:100B50000B7803704B7843708B78837060467047D6
:100B60000000000000000000000000000000000085
:100B70000000000000000000000000000000000075
:100B800090F800F06DE9024520F007016FF0000CCD
:100B900010F0070491F820F040F049804FF0000475
:100BA0006FF00700D1E9002391F840F000F1080050
:100BB00082FA4CF2A4FA8CF283FA4CF3A2FA8CF388
:100BC0004BBBD1E9022382FA4CF200F10800A4FAEF
:100BD0008CF283FA4CF3A2FA8CF3E3B9D1E9042343
:100BE00082FA4CF200F10800A4FA8CF283FA4CF37A
:100BF000A2FA8CF37BB9D1E9062301F1200182FA34
:100C00004CF200F10800A4FA8CF283FA4CF3A2FA39
:100C10008CF3002BC6D0002A04BF04301A4612BA47
:100C2000B2FA82F2FDE8024500EBD2007047D1E94A
:100C3000002304F00305C4F100004FEAC50514F0D9
:100C4000040F91F840F00CFA05F562EA05021CBFAA
:100C500063EA050362464FF00004A9E770B54FF060
:100C6000FF0C4CF4E06C1CEA11541DBF1CEA135538
:100C700094EA0C0F95EA0C0F00F0DEF82C4481EAA0
:100C8000030621EA4C5123EA4C5350EA013518BFC0
:100C900052EA033541F4801143F4801338D0A0FBAD
:100CA00002CE4FF00005E1FB02E506F00042E0FB5A
:100CB00003E54FF00006E1FB03569CF0000F18BF60
:100CC0004EF0010EA4F1FF04B6F5007F64F5407408
:100CD00004D25FEA4E0E6D4146EB060642EAC6219B
:100CE00041EA55514FEAC52040EA5E504FEACE2E08
:100CF000B4F1FD0C88BFBCF5E06F1ED8BEF1004F0B
:100D000008BF5FEA500E50F1000041EB045170BD86
:100D100006F0004646EA010140EA020081EA0301CA
:100D2000B4EB5C04C2BFD4EB0C0541EA045170BDC6
:100D300041F480114FF0000E013C00F3AB8014F140
:100D4000360FDEBF002001F0004170BDC4F1000489
:100D5000203C35DA0C341BDC04F11404C4F120050A
:100D600000FA05F320FA04F001FA05F240EA020065
:100D700001F0004221F0004110EBD37021FA04F69B
:100D800042EB06015EEA430E08BF20EAD37070BD55
:100D9000C4F10C04C4F1200500FA04F320FA05F0B4
:100DA00001FA04F240EA020001F0004110EBD370B6
:100DB00041F100015EEA430E08BF20EAD37070BD26
:100DC000C4F1200500FA05F24EEA020E20FA04F3FF
:100DD00001FA05F243EA020321FA04F001F00041AE
:100DE00021FA04F220EA020000EBD3705EEA430E1F
:100DF00008BF20EAD37070BD94F0000F0FD101F04E
:100E00000046400041EB010111F4801F08BF013C86
:100E1000F7D041EA060195F0000F18BF704703F0C4
:100E20000046520043EB030313F4801F08BF013D4B
:100E3000F7D043EA0603704794EA0C0F0CEA135507
:100E400018BF95EA0C0F0CD050EA410618BF52EAC1
:100E50004306D1D181EA030101F000414FF00000C7
:100E600070BD50EA410606BF1046194652EA4306D5
:100E700019D094EA0C0F02D150EA013613D195EA49
:100E80000C0F05D152EA03361CBF104619460AD191
:100E900081EA030101F0004141F0FE4141F470019B
:100EA0004FF0000070BD41F0FE4141F4780170BD8B
:100EB00070B54FF0FF0C4CF4E06C1CEA11541DBFF0
:100EC0001CEA135594EA0C0F95EA0C0F00F0A7F8F2
:100ED000A4EB050481EA030E52EA03354FEA01311F
:100EE00000F088804FEA03334FF0805545EA131332
:100EF00043EA12634FEA022245EA111545EA1065FA
:100F00004FEA00260EF000419D4208BF964244F190
:100F1000FD0404F5407402D25B084FEA3202B61AAF
:100F200065EB03055B084FEA32024FF480104FF483
:100F3000002CB6EB020E75EB030E22BFB61A7546F7
:100F400040EA0C005B084FEA3202B6EB020E75EB8A
:100F5000030E22BFB61A754640EA5C005B084FEAF2
:100F60003202B6EB020E75EB030E22BFB61A7546BF
:100F700040EA9C005B084FEA3202B6EB020E75EBCA
:100F8000030E22BFB61A754640EADC0055EA060E8B
:100F900018D04FEA051545EA16754FEA06164FEACE
:100FA000C30343EA52734FEAC2025FEA1C1CC0D17A
:100FB00011F4801F0BD141EA00014FF000004FF007
:100FC000004CB6E711F4801F04BF01430020B4F1C8
:100FD000FD0C88BFBCF5E06F3FF6AFAEB5EB030C80
:100FE00004BFB6EB020C5FEA500C50F1000041EB7D
:100FF000045170BD0EF0004E4EEA113114EB5C044A
:10100000C2BFD4EB0C0541EA045170BD41F480111C
:101010004FF0000E013C90E645EA060E8DE60CEA24
:10102000135594EA0C0F08BF95EA0C0F3FF43BAF41
:1010300094EA0C0F0AD150EA01347FF434AF95EAF8
:101040000C0F7FF425AF104619462CE795EA0C0FDC
:1010500006D152EA03353FF4FDAE1046194622E7A9
:1010600050EA410618BF52EA43067FF4C5AE50EA83
:1010700041047FF40DAF52EA43057FF4EBAE12E773
:101080004FEA410C7FEA6C5C02D150EA013C0AD184
:101090004FEA430C7FEA6C5C02D152EA033C02D176
:1010A0004FF0000070474FF0010070474FEA4102D7
:1010B00012F5001215D211D56FF47873B3EB6252AA
:1010C00012D94FEAC12343F0004343EA505311F0D1
:1010D000004F23FA02F018BF404270474FF0000063
:1010E000704750EA013005D111F0004008BF6FF0A1
:1010F000004070474FF00000704700BF00B585B05A
:10110000002300930193029303931548154A02604C
:101110004FF40032426083600361037680F8203030
:10112000C362114A8262C3600122C26180F830301A
:10113000426101F017FE68B9102300930123019367
:10114000002302936946064801F03AFF28B905B02A
:101150005DF804FB00F05EFDEEE700F05BFDF6E7F6
:1011600044060020002001400100000F00B585B0BA
:10117000002300930193029303931548154A0260DC
:101180004FF40032426083600361037680F82030C0
:10119000C362114A8262C3600122C26180F83030AA
:1011A000426101F0DFFD68B9082300930123019338
:1011B000002302936946064801F002FF28B905B0F2
:1011C0005DF804FB00F026FDEEE700F023FDF6E7F6
:1011D0008C060020002201400100000F00B589B0FC
:1011E00000230393049305930693079303681B4A14
:1011F000934205D01A4A93420FD009B05DF804FB20
:1012000000230093174B5A6C42F480725A645B6C53
:1012100003F480730093009BEFE700210191114BD1
:101220005A6C42F480625A645A6C02F480620192F1
:10123000019A02911A6B42F020021A631B6B03F0B1
:1012400020030293029B4FF48063039303230493D0
:1012500003A9054802F088FECFE700BF0020014047
:1012600000220140003802400014024008B50E4838
:101270000E4B03600323436000238360C3604FF47D
:10128000102202614FF4001242610376012242767D
:101290008376C2760377437701F05EFF00B908BD1D
:1012A00000F0B8FCFBE700BFD80600200064004057
:1012B00008B50E480E4B0360032343600023836090
:1012C000C3604FF4102202614FF4001242610376B2
:1012D000012242768376C2760377437701F03CFFA2
:1012E00000B908BD00F096FCFBE700BF0007002036
:1012F0000068004010B58AB0002305930693079359
:10130000089309930368434A934204D0424A9342A4
:101310003ED00AB010BD414A136801331360012B5F
:1013200029D0002401943E4B1A6B42F008021A6344
:101330001B6B03F008030193019B03230593022217
:1013400006920122079208930923099305A93548BB
:1013500002F00AFE22460521142002F0B5F91420FD
:1013600002F0EAF922460521152002F0ADF9152018
:1013700002F0E2F9CDE700230093294B1A6C42F00A
:1013800000721A641B6C03F000730093009BC8E7A3
:1013900000230293224B1A6C42F080621A641B6C89
:1013A00003F080630293029B1C4A136801331360AD
:1013B000012B22D000240494194B1A6B42F0020234
:1013C0001A631B6B03F002030493049B60230593D1
:1013D0000223069301230793032308930923099308
:1013E00005A9114802F0C0FD22460521402002F067
:1013F0006BF9402002F0A0F98BE700230393084B20
:101400001A6C42F000721A641B6C03F000730393B1
:10141000039BCFE70064004000680040D406002032
:1014200000380240000C02400004024008B50548A4
:10143000054B036002F0A2F900B908BD00F0EAFB19
:10144000FBE700BF28070020003002400268094B7C
:101450009A4200D0704782B000230193064B1A6B6A
:1014600042F480521A631B6B03F480530193019B77
:1014700002B07047003002400038024010B582B020
:10148000002400942A4B1A6B42F480021A631A6BF0
:1014900002F480020092009A01941A6B42F4001246
:1014A0001A631B6B03F400130193019B2246052171
:1014B0000C2002F009F90C2002F03EF92246052129
:1014C0000F2002F001F90F2002F036F92246052123
:1014D000392002F0F9F8392002F02EF922460521D0
:1014E0003A2002F0F1F83A2002F026F922460521CE
:1014F0003B2002F0E9F83B2002F01EF922460521CC
:10150000442002F0E1F8442002F016F922460521B9
:10151000452002F0D9F8452002F00EF922460521B7
:10152000462002F0D1F8462002F006F902B010BDC4
:101530000038024008B5012007F084FBFBE70000FB
:10154000034B0360034B0B6080231360704700BFA5
:10155000600900206007002010B5CEB0664C0DF584
:101560008E7CA646BEE80F00ACE80F009EE80700A0
:101570008CE80700002147A807F02FFB5F4B18609D
:101580000DF5807C04F11C0EBEE80F00ACE80F00E6
:101590009EE807008CE80700002140A807F01DFB2B
:1015A000574B18600DF1E40C04F1380EBEE80F0043
:1015B000ACE80F009EE807008CE80700002139A87E
:1015C00007F00BFB4F4B18600DF1C80C04F1540EE3
:1015D000BEE80F00ACE80F009EE807008CE80700AB
:1015E000002132A807F0F9FA474B18600DF1AC0C56
:1015F00004F1700EBEE80F00ACE80F009EE8070093
:101600008CE8070000212BA807F0E7FA3F4B186091
:101610000DF1900C04F18C0EBEE80F00ACE80F0049
:101620009EE807008CE80700002124A807F0D5FAFF
:10163000374B18600DF1740C04F1A80EBEE80F00D2
:10164000ACE80F009EE807008CE8070000211DA809
:1016500007F0C3FA2F4B18600DF1580C04F1C40EBB
:10166000BEE80F00ACE80F009EE807008CE807001A
:10167000002116A807F0B1FA274B18600DF13C0CB9
:1016800004F1E00EBEE80F00ACE80F009EE8070092
:101690008CE8070000210FA807F09FFA1F4B186085
:1016A0000DF1200C04F1FC0EBEE80F00ACE80F00B9
:1016B0009EE807008CE80700002108A807F08DFAD3
:1016C000174B18600DF1040C04F58C740FCCACE8CA
:1016D0000F0094E807008CE80700002101A807F03C
:1016E0007CFA104B186000228021012007F0C6FE12
:1016F0000D4B18604EB010BD8881010844070020D2
:10170000380700203C0700204C070020500700202D
:10171000480700205C0700204007002058070020F1
:101720005407002034070020300700202DE9F04F37
:101730008FB0002409940A940B940C940D94009497
:10174000744B1A6B42F002021A631A6B02F0020227
:101750000092009A01941A6B42F040021A631A6BCD
:1017600002F040020192019A02941A6B42F00102C7
:101770001A631A6B02F001020292029A03941A6B26
:1017800042F008021A631A6B02F008020392039AED
:1017900004941A6B42F004021A631A6B02F00402FA
:1017A0000492049A05941A6B42F480721A631A6BBD
:1017B00002F480720592059A06941A6B42F0200298
:1017C0001A631A6B02F020020692069A07941A6BAB
:1017D00042F080021A631A6B02F080020792079AA5
:1017E00008941A6B42F010021A631B6B03F010038B
:1017F0000893089BDFF8248122464021404602F0EE
:10180000A5FCDFF81C9101221021484602F09EFC45
:10181000414E012241F20101304602F097FC402383
:10182000099301250A950B950C9509A9404602F0EC
:101830009BFB092709974FF4041ACDF828A00B95B4
:1018400009A9404602F090FB0E2309930A940B94D9
:10185000DFF8D0B009A9584602F086FB09950A9432
:101860000B9509A9484602F07FFB102309930A95BE
:101870000B954FF00208CDF8308009A9484602F0D8
:1018800073FB30230993CDF828A00B9509A958467E
:1018900002F06AFB4FF4805309930A950B950C955F
:1018A00009A9304602F060FB09950A950B95CDF821
:1018B000308009A9304602F057FB4FF4804309936A
:1018C0000A94CDF82C8009A9304602F04DFB22463F
:1018D0000521062001F0F8FE062001F02DFF22462A
:1018E0000521384601F0F0FE384601F025FF22467A
:1018F00005210A2001F0E8FE0A2001F01DFF224622
:101900000521172001F0E0FE172001F015FF0FB0B0
:10191000BDE8F08F00380240000402400018024089
:10192000000002400008024008B50B480B4B036062
:101930000B4B436000238360C3604FF4804202611D
:1019400043618361C361036202F060FE00B908BDB8
:1019500000F060F9FBE700BFB40900200058004028
:10196000A086010008B50B480B4B03600B4B43608E
:1019700000238360C3604FF480420261436183614E
:10198000C361036202F042FE00B908BD00F042F9F3
:10199000FBE700BF080A0020005C0040801A060038
:1019A0002DE9F0418AB0002305930693079308932D
:1019B00009930368334A934205D0334A934224D0B3
:1019C0000AB0BDE8F08100250095304C236B43F050
:1019D00020032363236B03F020030093009B032366
:1019E00005931222069208930423099305A9284817
:1019F00002F0BAFA0195236C43F480032364236C4C
:101A000003F480030193019BDAE7002502951F4C44
:101A1000236B43F004032363236B03F0040302935B
:101A2000029B0395236B43F001032363236B03F0B5
:101A300001030393039B4FF4007305934FF01208C7
:101A4000CDF81880032708970426099605A91148A0
:101A500002F08AFA4FF480730593CDF81880079549
:101A60000897099605A90C4802F07EFA0495236CA4
:101A700043F400032364236C03F400030493049BE6
:101A80009EE700BF00580040005C00400038024064
:101A900000140240000802400000024030B595B03A
:101AA0003022002108A812F0DBFF002403940494E4
:101AB00005940694079401941C4B1A6C42F08052D2
:101AC0001A641B6C03F080530193019B0294184B22
:101AD0001A6842F480421A601B6803F48043029340
:101AE000029B012308934FF48033099302250E953E
:101AF0004FF480030F9306231093A823119312959C
:101B00000723139308A803F0EDFE0F230393049516
:101B100005944FF4A05306934FF480530793052187
:101B200003A804F02DF915B030BD00BF0038024005
:101B30000070004008B501F03BF8FFF7AFFFFFF77A
:101B4000F5FDFFF79BFCFFF771FC00F065F8FFF770
:101B50008DFBFFF7ADFB00F087F800F0A9F800F06F
:101B6000CDFB00F047FC00F085FC00F0DBFC00F052
:101B700043FD00F0D9FDFFF7C1FAFFF7F7FAFFF7D1
:101B8000D3FEFFF7EFFE00F009FE00F021FE00F0AB
:101B90003DFE0EF017FE1B4C0021204604F0B8FF5E
:101BA0000421204604F0B4FF0821204604F0B0FFD1
:101BB000154C204604F070FD0021204604F0A8FFDB
:101BC0000421204604F0A4FF0821204604F0A0FFD1
:101BD0000C21204604F09CFFC8210C4811F0F0F9BC
:101BE000C8210B4811F07EF90BF070F80BF01CF8CF
:101BF0000DF08AF90CF058FEFFF7AEFC06F0E8FF96
:101C0000FEE700BFA40D00203C0C002090AA00209D
:101C1000C8A900207047000008B50548054B0360BF
:101C200004F084F900B908BDFFF7F4FFFBE700BF3B
:101C30005C0A0020000806500268094B9A4200D056
:101C4000704782B000230193064B5A6B42F040026A
:101C50005A635B6B03F040030193019B02B0704732
:101C6000000806500038024008B50F480F4B0360CB
:101C70004FF48273436000238360C36002220261D9
:101C8000012242614FF4007282613822C261036214
:101C9000436283620A23C36204F0FEF900B908BDFF
:101CA000FFF7B8FFFBE700BF8C0B002000300140BE
:101CB00008B50E480E4B03604FF482734360002357
:101CC0008360C3600361012242614FF4007282614C
:101CD0001022C2610362436283620A23C36204F07A
:101CE000DBF900B908BDFFF795FFFBE7E40B002027
:101CF000003800402DE9F0438BB0044600230593E3
:101D0000069307930893099303685E4A934205D0AC
:101D10005D4A934279D00BB0BDE8F0830025009571
:101D20005A4B5A6C42F480525A645A6C02F48052F4
:101D30000092009A01951A6B42F002021A631A6B24
:101D400002F002020192019A02951A6B42F001021E
:101D50001A631B6B03F001030293029B1823059384
:101D60004FF00209CDF818904FF00108CDF81C8013
:101D7000032708970526099605A9454802F0F4F8B7
:101D800080230593CDF81890CDF81C80089709960C
:101D900005A9404802F0E8F83F48404B03604FF087
:101DA000C06343608560C5604FF480630361456133
:101DB0008561C5614FF440330362456201F06EFDF9
:101DC000E8B9354BE3649C633548364B03604FF00C
:101DD000C0634360402383600023C3604FF480628C
:101DE000026143618361C3614FF400320262436266
:101DF00001F054FD30B92A4BA3649C638BE7FFF7D5
:101E000009FFDEE7FFF706FFF5E7002503951F4B07
:101E10001A6C42F480421A641A6C02F480420392F3
:101E2000039A04951A6B42F002021A631B6B03F0CB
:101E300002030493049B4FF420430593022306936B
:101E4000032308930523099305A9114802F08CF890
:101E50001548164B0360456040238360C5604FF40E
:101E60008063036145618561C5610562456201F07A
:101E700015FD18B90C4BA3649C634CE7FFF7CAFE31
:101E8000F8E700BF00300140003800400038024051
:101E900000040240000002406C0A0020406402403E
:101EA000CC0A0020586402402C0B002070600240D5
:101EB00000B583B0002200920D4B596C41F4804173
:101EC0005964596C01F48041009100990192196C98
:101ED00041F0805119641B6C03F080530193019B06
:101EE0000F216FF0010001F0EFFB03B05DF804FB80
:101EF00000380240FEE7FEE7FEE7FEE7FEE7704738
:101F000008B500F06FFE08F0DDF9012800D108BD2A
:101F100006F0C0FFFBE708B5012002F01DF908BD7F
:101F200008B5082002F018F908BD08B5102002F025
:101F300013F908BD08B5024801F04CFD08BD00BF0B
:101F4000AC0E002008B5024801F044FD08BD00BFFA
:101F50002C0B002008B5202002F0FEF808BD000080
:101F600008B5024801F036FD08BD00BF0C0F002087
:101F700008B5024801F02EFD08BD00BFCC0A0020C4
:101F800008B5024803F0A0F908BD00BF6C87002027
:101F900008B5024801F01EFD08BD00BFEC0D002091
:101FA00008B5024801F016FD08BD00BF6C0F002007
:101FB00008B5024801F00EFD08BD00BF4C0E002020
:101FC000034AD2F8883043F47003C2F8883070476F
:101FD00000ED00E082B00368104A934204D0104A3A
:101FE00093420ED002B07047002300930D4B5A6C01
:101FF00042F001025A645B6C03F001030093009B02
:10200000F0E700230193074B1A6C42F002021A64B6
:102010001B6C03F002030193019BE3E70000014006
:10202000000400400038024084B00368204A934214
:1020300015D0204A934220D01F4A93422AD01F4AEB
:10204000934218D1002303931D4B5A6C42F4003283
:102050005A645B6C03F400330393039B0BE000238F
:102060000093174B1A6C42F004021A641B6C03F0C5
:1020700004030093009B04B0704700230193104BAE
:102080001A6C42F008021A641B6C03F008030193F7
:10209000019BF0E700230293094B5A6C42F00202C5
:1020A0005A645B6C03F002030293029BE3E700BFF8
:1020B00000080040000C00400004014000440140C2
:1020C00000380240F0B58DB00023079308930993C0
:1020D0000A930B930368784A934212D0774A93424B
:1020E00033D0774A934252D0764A934272D0764A9E
:1020F000934200F09980754A934200F0BA800DB087
:10210000F0BD00230193724B1A6B42F010021A6368
:102110001B6B03F010030193019B4FF4D043079313
:102120000225089501240B946A4E07A9304601F058
:102130001BFF4FF400730793089509940A950B94BD
:1021400007A9304601F010FFD9E700230293604B46
:102150001A6B42F004021A631B6B03F00403029330
:10216000029B4FF480730793022308930122099284
:102170000A930B9307A9584801F0F6FE574C2046E6
:1021800004F08AFA0821204604F0C2FCB7E70023D5
:1021900003934F4B1A6B42F008021A631B6B03F058
:1021A00008030393039B4FF4804307930223089390
:1021B0000122099203220A920B9307A9484801F0D1
:1021C000D3FE484C204604F067FA0821204604F06C
:1021D0009FFC94E7002504953D4B1A6B42F080026A
:1021E0001A631B6B03F080030493049B4FF4E053CA
:1021F000079302230893012209920A930B9307A9DC
:10220000394801F0B1FE394C204604F045FA294620
:10221000204604F07DFC0421204604F079FC0821CE
:10222000204604F075FC6AE700250595284B1A6BDB
:1022300042F480721A631B6B03F480730593059B51
:10224000C0230793022708970123099303240A94C4
:102250000B94274E07A9304601F086FE20230793F2
:10226000089709950A950B9407A9304601F07CFE62
:1022700045E700250695164B1A6B42F020021A63BB
:102280001B6B03F020030693069B40230793022356
:102290000893012209920A9303230B9307A9154877
:1022A00001F062FE144C204604F0F6F9294620465F
:1022B00004F02EFC23E700BF0000014000040040B2
:1022C00000080040000C00400004014000440140B0
:1022D000003802400010024000080240CC0C0020F0
:1022E000000C0240140D0020001C02405C0D002078
:1022F0000020024000140240840C002010B592B06F
:1023000000241094119409940A940B940C940D9445
:102310000E940F942022214601A812F0A1FB33480D
:10232000334B0360A7234360846044F61F63C3609C
:1023300004614461846104F07DFA002840D10023E7
:102340001093119310A9294804F064FC00283AD195
:10235000602309934FF47A730A9300220B920C9234
:102360000D920E920F9209A9204804F0C7FA68BB9B
:10237000042209A91D4804F0C1FA50BB00230A93A6
:10238000082209A9194804F0B9FA28BB0C2209A9A6
:10239000164804F0B3FA10BB002301930293039391
:1023A000049305934FF400520692089301A90F4835
:1023B00004F076FCB0B90D48FFF784FE12B010BDF2
:1023C000FFF728FCBBE7FFF725FCC1E7FFF722FC7E
:1023D000CEE7FFF71FFCD1E7FFF71CFCD6E7FFF7BE
:1023E00019FCD9E7FFF716FCE5E700BF3C0C00201D
:1023F0000000014000B58BB00023089309930193BE
:102400000293039304930593069307931748184A7E
:1024100002604360836042F2CF02C2600361836165
:1024200004F008FAC8B900230893099308A90F48D3
:1024300004F0F0FBA0B960230193002302930393FF
:102440000593082201A9094804F058FA58B9074829
:10245000FFF738FE0BB05DF804FBFFF7DBFBE2E7AC
:10246000FFF7D8FBE7E7FFF7D5FBF0E7CC0C002040
:102470000004004000B58FB000230A930B930C9327
:102480000D93089309930193029303930493059387
:10249000069307932148224A0260A7224260836084
:1024A0004FF6FF72C2600361836104F097F928BBA5
:1024B0004FF480530A930AA9184804F09AFA00BB13
:1024C000164804F0B7F9F8B900230893099308A94E
:1024D000124804F09FFBD0B96023019300230293BC
:1024E00003930593082201A90C4804F007FA88B960
:1024F0000A48FFF7E7FD0FB05DF804FBFFF78AFB22
:10250000D6E7FFF787FBDBE7FFF784FBDCE7FFF7A6
:1025100081FBE1E7FFF77EFBEAE700BF140D002037
:102520000008004000B58FB000230A930B930C9372
:102530000D930893099301930293039304930593D6
:10254000069307932A482B4A0260436083604FF644
:10255000FF72C2600361836104F040F9002831D149
:102560004FF480530A930AA9214804F042FA60BB51
:102570001F4804F05FF958BB00230893099308A98A
:102580001B4804F047FB30BB6023019300220292FA
:102590000392059201A9164804F0B0F9F0B904229B
:1025A0000DEB0201124804F0A9F9D0B9082201A9E3
:1025B0000F4804F0A3F9B8B90D48FFF783FD0FB039
:1025C0005DF804FBFFF726FBCAE7FFF723FBCFE725
:1025D000FFF720FBD0E7FFF71DFBD5E7FFF71AFB5E
:1025E000DDE7FFF717FBE1E7FFF714FBE4E700BFC8
:1025F0005C0D0020000C004010B596B00024129431
:102600001394149415941094119409940A940B94AF
:102610000C940D940E940F942022214601A812F0E0
:102620001FFA3F483F4B0360A7234360846040F696
:102630009C73C360046144618023836104F0CEF81D
:10264000002855D14FF48053129312A9344804F056
:10265000D0F900284FD1324804F0ECF800284DD1D1
:1026600000231093119310A92D4804F0D3FA0028E9
:1026700047D16023099300220A920B920C920D928B
:102680000E920F9209A9264804F038F900283BD190
:1026900040F2DC530A93042209A9214804F02EF9E0
:1026A000002834D1082209A91D4804F027F988BB65
:1026B0000023019302930393049305934FF4005274
:1026C0000692089301A9164804F0EAFA28BB144CB4
:1026D000204603F0E1FF0421204604F019FA082106
:1026E000204604F015FA2046FFF7ECFC16B010BDAA
:1026F000FFF790FAA6E7FFF78DFAACE7FFF78AFA43
:10270000AEE7FFF787FAB4E7FFF784FAC0E7FFF711
:1027100081FAC7E7FFF77EFACAE7FFF77BFAD6E749
:10272000A40D00200004014000B589B000230193EE
:102730000293039304930593069307931548164A4F
:1027400002604360836041F28732C260036183614B
:1027500004F044F8A0B90F4804F06CF898B960236D
:102760000193002202920392059201A9094804F004
:10277000C5F858B90748FFF7A5FC09B05DF804FB98
:10278000FFF748FAE7E7FFF745FAE8E7FFF742FA0D
:10279000F0E700BF840C00200044014008B50A485F
:1027A0000A4B03604FF4E133436000238360C3604E
:1027B00003610C2242618361C36104F023FB00B911
:1027C00008BDFFF727FAFBE7CC0F002000100140FF
:1027D00008B50B480B4B03600B4B43600023836031
:1027E000C3604FF480620261042242618361C3616D
:1027F00004F008FB00B908BDFFF70CFAFBE700BFC7
:102800001010002000480040A086010008B50A48CA
:102810000A4B03604FF4E133436000238360C360DD
:1028200003610C2242618361C36104F0EBFA00B9D9
:1028300008BDFFF7EFF9FBE754100020001401403A
:102840002DE9F0418CB004460023079308930993C7
:102850000A930B9303689C4A93420AD09B4A934283
:1028600000F082809A4A934200F0C5800CB0BDE827
:10287000F08100250095974B5A6C42F010025A6483
:102880005A6C02F010020092009A01951A6B42F005
:1028900002021A631A6B02F002020192019A029577
:1028A0001A6B42F001021A631B6B03F001030293DF
:1028B000029B802307934FF00208CDF82080032766
:1028C0000A9707260B9607A9834801F04DFB4FF4A2
:1028D00000730793CDF8208009950A970B9607A9F6
:1028E0007E4801F041FB7E487E4B03604FF0006361
:1028F00043608560C5604FF4806303614561856115
:10290000C5614FF400330362456200F0C7FF28BB86
:10291000734BA3639C637448744B03604FF0006374
:102920004360402383600023C3604FF480620261F0
:1029300043618361C3614FF480320262436200F0FD
:10294000ADFF70B9684B63639C63002205212520AD
:1029500000F0BAFE252000F0EFFE87E7FFF75AF9F6
:10296000D6E7FFF757F9EDE700250395594B1A6CA9
:1029700042F480221A641A6C02F480220392039AB1
:1029800004951A6B42F004021A631B6B03F00403F4
:102990000493049B4FF4406307930223089303239B
:1029A0000A9307230B9307A9514801F0DDFA514818
:1029B000514B03604FF0006343608560C5604FF486
:1029C0008063036145618561C5614FF40033036233
:1029D000456200F063FF58B9464BA3639C63002235
:1029E0000521272000F070FE272000F0A5FE3DE71E
:1029F000FFF710F9F0E700250595364B5A6C42F0C9
:102A000020025A645A6C02F020020592059A06953B
:102A10001A6B42F040021A631B6B03F040030693EB
:102A2000069B4FF4844307930223089303260A96D8
:102A300008230B9307A9314801F096FA3048314B2F
:102A400003604FF0206343608560C5604FF480638E
:102A5000036145618561C5614FF40033036204235E
:102A600043628662C562056300F018FF28BB244BF1
:102A7000A3639C632448254B03604FF020634360AD
:102A8000402383600023C3604FF48062026143618E
:102A90008361C3614FF480320262436200F0FEFE44
:102AA00070B9194B63639C6300220521472000F035
:102AB0000BFE472000F040FED8E6FFF7ABF8D6E764
:102AC000FFF7A8F8EDE700BF001001400048004004
:102AD000001401400038024000040240000002409F
:102AE000EC0D0020886402404C0E0020B8640240C7
:102AF00000080240AC0E002028600240001802408E
:102B00000C0F0020286402406C0F0020A0640240DB
:102B1000DFF834D00D480E490E4A002302E0D458A5
:102B2000C4500433C4188C42F9D30B4A0B4C002315
:102B300001E013600432A242FBD3FFF741FA11F027
:102B40006BFFFEF7F7FF7047000002200000002037
:102B500024060020A48D01082806002018AF0020BC
:102B6000FEE7000010B504460E4B18784FF47A7358
:102B7000B3FBF0F30C4A1068B0FBF3F000F0EAFD91
:102B800068B90F2C01D901200AE0002221464FF03C
:102B9000FF3000F099FD054B1C60002000E0012093
:102BA00010BD00BF0400002000000020080000202D
:102BB00008B50B4B1A6842F400721A601A6842F4A6
:102BC00080621A601A6842F480721A60032000F072
:102BD00069FD0F20FFF7C6FFFFF76AF9002008BD67
:102BE000003C0240034A1168034B1B780B441360FE
:102BF000704700BF9810002004000020014B1868A7
:102C0000704700BF9810002038B50446FFF7F6FF64
:102C10000546B4F1FF3F02D0044B1B781C44FFF77C
:102C2000EDFF401BA042FAD338BD00BF04000020D6
:102C30004A4B5A6822F440325A605A6841680A4343
:102C40005A600268536823F48073536002685368C3
:102C5000016943EA012353600268536823F040731B
:102C600053600268536881680B435360026893683D
:102C700023F40063936002689368C1680B43936018
:102C8000826A374B9A4257D00268936823F0706388
:102C9000936002689368816A0B439360026893684B
:102CA00023F04053936002689368C16A0B439360BA
:102CB0000268936823F00203936002689368017EC0
:102CC00043EA4103936090F82030002B3FD0026824
:102CD000536843F4006353600268536823F460430D
:102CE000536001684B68426A013A43EA42334B60E1
:102CF0000268D36A23F47003D3620168CB6AC269A5
:102D0000013A43EA0253CB620268936823F40073EA
:102D100093600268936890F8301043EA412393600F
:102D20000268936823F48063936002689368416942
:102D300043EA8123936070470268936823F07063CD
:102D400093600268936823F040539360B0E7026891
:102D5000536823F400635360CAE700BF00230140B7
:102D60000100000F38B310B50446036C43B1236C67
:102D700013F0100F0BD00120002384F83C3010BD5D
:102D8000FEF72CFA0023636484F83C30EFE7236CF1
:102D900023F4885323F0020343F002032364204604
:102DA000FFF746FF00206064236C23F0030343F029
:102DB00001032364E0E701207047000082B0002394
:102DC000019390F83C30012B00F08980012380F8BA
:102DD0003C3003689A6812F0010F13D19A6842F0F0
:102DE00001029A60414B1B68414AA2FB03239B0CE2
:102DF00003EB4303019302E0019B013B0193019B21
:102E0000002BF9D10268936813F0010F5CD0036CBA
:102E100023F4E06323F0010343F4807303645368F5
:102E200013F4806F05D0036C23F4405343F48053B4
:102E30000364036C13F4805F1BD0436C23F0060320
:102E40004364002380F83C306FF022031360294B69
:102E50005B6813F01F0F27D10368274A934211D0F4
:102E600002F58072934207D0244A934214D0002086
:102E700033E000234364E4E702F50072526812F085
:102E80001F0FF1D19A6812F0405F2AD19A6842F080
:102E900080429A60002020E002F58072526812F0B1
:102EA000100FEFD0002018E00368134A934201D0BE
:102EB000002012E09A6812F0405F14D19A6842F044
:102EC00080429A60002008E0036C43F01003036422
:102ED000436C43F001034364002002B070470220BA
:102EE000FBE70020F9E70020F7E700BF0000002023
:102EF00083DE1B43002301400020014000220140EB
:102F000070B504460D4603689A6812F4806F03D0CA
:102F10009B6813F4807F19D1FFF770FE0646236883
:102F20001A6812F0020F20D1B5F1FF3FF7D0B5B902
:102F300023681B6813F0020FF1D1236C43F00403E4
:102F40002364002384F83C30032032E0036C43F018
:102F500020030364002380F83C30012029E0FFF7C0
:102F60004DFE801BA842DAD9E2E76FF012021A6028
:102F7000236C43F40073236423689A6812F0405F63
:102F800016D1207EB0B9DA6A12F4700F03D09B68B4
:102F900013F4806F0DD1236C23F480732364236CAE
:102FA00013F4805F05D1236C43F00103236400E038
:102FB000002070BD0020FCE70368D86C704700005B
:102FC00030B482B00023019390F83C30012B00F024
:102FD000BB80012380F83C300B68092B41D9046881
:102FE000E2689BB203EB43031E3B4FF0070C0CFA65
:102FF00003F322EA0303E3600468E2680B8803EB4F
:1030000043031E3B8D6805FA03F31343E3604B68EB
:10301000062B3DD80468626B03EB8303053B4FF03E
:103020001F0C0CFA03F322EA030363630468626B68
:103030004B6803EB8303053BB1F800C00CFA03F3C4
:10304000134363630268414B9A4251D002683F4B7D
:103050009A4256D0002380F83C30184602B030BC6B
:103060007047046822699BB203EB43034FF0070CDF
:103070000CFA03F322EA03032361046822690B8834
:1030800003EB43038D6805FA03F313432361BEE7A3
:103090000C2B16D805682A6B03EB8303233B1F24F4
:1030A00004FA03F322EA03032B6305682A6B4B68D7
:1030B00003EB8303233B0C8804FA03F313432B63D2
:1030C000C0E70568EA6A03EB8303413B1F2404FA67
:1030D00003F322EA0303EB620568EA6A4B6803EB39
:1030E0008303413B0C8804FA03F31343EB62A9E723
:1030F0000B68122BAAD1164A536843F4800353601D
:10310000A4E70B68103B012BA4D8114A536843F481
:10311000000353600B68102B9CD10E4B1B6802F10F
:10312000467202F52E3202F28332A2FB03239B0C7D
:1031300003EB83035B00019302E0019B013B0193DE
:10314000019B002BF9D185E7022087E70020014091
:103150000023014000000020002800F0A18038B5C5
:10316000044690F82030D3B12268136843F001037D
:103170001360FFF743FD054623685A6812F0010FFC
:1031800010D1FFF73BFD401B0A28F5D9636A43F4D1
:1031900000336362052384F82030012038BDFEF738
:1031A000A9F8E1E71A6822F002021A60FFF726FD8B
:1031B000054623685A6812F0020F0DD0FFF71EFD76
:1031C000401B0A28F5D9636A43F400336362052380
:1031D00084F820300120E1E7227E012A3DD01A68E0
:1031E00022F080021A60637E012B3BD022681368B4
:1031F00023F040031360A37E012B39D022681368AB
:1032000023F020031360E37E012B37D0226813687C
:1032100043F010031360237F012B35D0226813681D
:1032200023F008031360637F012B33D022681368F7
:1032300023F004031360A368E26813432269134375
:10324000626913436268013A21681343CB6100202D
:103250006062012384F82030A0E71A6842F08002FF
:103260001A60C0E72268136843F040031360C2E7A6
:103270002268136843F020031360C4E722681368D0
:1032800023F010031360C6E72268136843F00803B5
:103290001360C8E72268136843F004031360CAE7A9
:1032A0000120704790F82030013BDBB2012B05D99B
:1032B000436A43F4802343620120704730B5464B94
:1032C000D3F8002242F00102C3F80022D3F8002212
:1032D00022F47C52C3F80022D3F80022486A42EA62
:1032E0000022C3F800224A6902F01F02012000FAFE
:1032F00002F2D3F81C026FEA020C20EA0200C3F8C3
:103300001C02CB69C3B9344BD3F80C020CEA0000A1
:10331000C3F80C028C884869CD6844EA05444830FB
:1033200043F830408C68088840EA04404C6904F156
:10333000480E03EBCE035860CB69012B1ED08B697E
:10334000002B33D12448D0F804320CEA0303C0F830
:1033500004320B698BBB2048D0F814320CEA03030B
:10336000C0F814320B6A012B2ED01B4AD2F800325F
:1033700023F00103C2F80032002030BD164BD3F811
:103380000C021043C3F80C028C8848690D6844EAAB
:103390000544483043F8304088894C698D6840EADC
:1033A0000540483403EBC4035860C8E70A48D0F826
:1033B00004321343C0F80432CBE70748D0F8143284
:1033C0001343C0F81432CDE70349D1F81C321A4335
:1033D000C1F81C22C9E700BF0064004070B5044674
:1033E00090F82050EDB2012D06D0436A43F400233B
:1033F00043620125284670BD022380F82030026810
:10340000136823F001031360FFF7F8FB06462368F7
:103410005B6813F0010F0CD0FFF7F0FB831B0A2B46
:10342000F5D9636A43F400336362052384F82030DE
:10343000E0E700256562DDE730B590F820C004685C
:10344000A4680CF1FF3C5FFA8CFCBCF1010F6BD857
:1034500014F0E05F62D0C4F3016CBCF1020F05D937
:10346000436A43F400034362012062E0012404FA4A
:103470000CF41C608B68002B3DD10D68CB68046890
:1034800043EA45550CF118031B01E55003680C692C
:103490000CF1180E03EB0E135C600B7D012B35D085
:1034A000D17993791B0443EA0163517943EA0123FB
:1034B00014790168234301EB0C11C1F88C31D178E8
:1034C00093781B0443EA0163517843EA012311789E
:1034D00002680B4302EB0C12C2F8883102680CF14F
:1034E000180C4FEA0C1C52F80C3043F0010342F860
:1034F0000C3000201DE04C6843EAC403CC68234331
:103500000CF11804240105682B51BFE7036803EB95
:103510000E13596841F480715960C1E7436A43F45E
:1035200000134362012004E0436A43F480234362B2
:10353000012030BD90F820C00CF1FF3C5FFA8CFCFC
:10354000BCF1010F00F2958030B451B90468E46811
:1035500014F0030F10D1436A43F4001343620120B7
:1035600077E00468246914F0030F05D1436A43F43B
:103570000013436201206CE001F11B042401056883
:103580002C5904F004049460002C64D101F11B0454
:10359000240105682C59640D1460046801F11B0CAA
:1035A0004FEA0C1C54F80C4004F00204D460046888
:1035B0006444646804F00F0414610468644464683B
:1035C000C4F307249461046864446468240C54615F
:1035D000026802EB0112D2F8B8211A70026802EBFD
:1035E0000112D2F8B821C2F307225A70026802EB26
:1035F0000112D2F8B821C2F307429A70026802EBB6
:103600000112D2F8B821120EDA70026802EB011230
:10361000D2F8BC211A71026802EB0112D2F8BC2167
:10362000C2F307225A71026802EB0112D2F8BC21E0
:10363000C2F307429A71026802EB0112D2F8BC2170
:10364000120EDA7179B90268D36843F02003D360AF
:10365000002030BC704701F11B04240105682C597F
:10366000E408546099E70268136943F0200313618A
:10367000EEE7436A43F4802343620120704790F8E9
:103680002030013BDBB2012B05D9436A43F4802390
:103690004362012070470268536919435161002059
:1036A00070470000074AD36823F4E0631B041B0C37
:1036B000000200F4E060034343F0BF6343F40033CF
:1036C000D360704700ED00E000B5194BDB68C3F331
:1036D0000223C3F1070CBCF1040F28BF4FF0040C08
:1036E00003F1040EBEF1060F18D9033B4FF0FF3E65
:1036F0000EFA0CFC21EA0C0199400EFA03F322EABF
:103700000303194300280BDB0901C9B200F1604033
:1037100000F5614080F800135DF804FB0023E5E745
:1037200000F00F000901C9B2024B1954F4E700BFC1
:1037300000ED00E014ED00E0002807DB00F01F02C0
:10374000400901239340024A42F82030704700BFED
:1037500000E100E00138B0F1807F0BD24FF0E023B0
:103760005861054AF02182F8231000209861072251
:103770001A6170470120704700ED00E058B110B5A4
:10378000044643791BB101236371002010BD03710E
:10379000FDF75CFEF7E70120704730B405682C6840
:1037A00024F480242C60046863608368402B05D077
:1037B000036899600368DA6030BC704703689A60F8
:1037C0000368D960F8E7000010B40368D9B2103973
:1037D0000C4AA2FB014212090B4CA25CC2655F2994
:1037E00009D923F47F7323F0030304338365806DC9
:1037F0005DF8044B704723F47F7323F00303836564
:10380000F5E700BFABAAAAAAA8830108836A826968
:1038100092B9012B0AD0022B02D00BB100207047C5
:10382000C36A13F0807F28D100207047C36AB3F1C8
:10383000C07F24D000207047B2F5005F09D0022B72
:1038400025D9032B25D1C36A13F0807F23D1002013
:103850007047032B03D8DFE803F01404140A002098
:103860007047C36A13F0807F0DD100207047C36A90
:10387000B3F1C07F09D000207047012070470120BC
:1038800070470120704701207047012070470120D8
:1038900070470020704701207047000070B5044653
:1038A000FFF7ACF9002C5BD00546022384F83530D5
:1038B000002384F834302268136823F00103136076
:1038C00023681A6812F0010F0AD0FFF797F9431B1B
:1038D000052BF5D920236365032084F8350070BDDE
:1038E0001A68204810406168A2680A43E1680A43E8
:1038F00021690A4361690A43A1690A43E1690A43EC
:10390000216A0A430243616A04291ED01A602668AC
:10391000756925F00705636A1D43042B07D1A36A67
:103920001D43E36A1BB12046FFF770FF90B9756134
:103930002046FFF749FFE26D3F239340836000205C
:103940006065012384F83530C9E7E16A206B0143E3
:103950000A43DBE740236365012084F83500BEE7B6
:103960000120BCE73F8010F038B50446856D90F823
:10397000340001282BD0012084F8340094F835005D
:10398000C0B2012804D0002384F83430022038BDAE
:10399000022084F83500002060652046FFF7FDFE18
:1039A000E26D3F239340AB602268136843F0160337
:1039B0001360236C23B12268136843F0080313607B
:1039C0002268136843F0010313600020DFE7022040
:1039D000DDE70000F0B583B0044600230193724B8D
:1039E0001D68724BA3FB0535AD0A876D3E68C26D3D
:1039F00008239340334210D003681A6812F0040F72
:103A00000BD01A6822F004021A60C26D082393409A
:103A1000BB60436D43F001034365E26D01239340B6
:103A2000334209D02268526912F0800F04D0BB6083
:103A3000636D43F002036365E26D042393403342F8
:103A400009D02268126812F0020F04D0BB60636DC7
:103A500043F004036365E26D10239340334224D0A6
:103A60002268126812F0080F1FD0BB6023681A6822
:103A700012F4802F0DD01B6813F4002F04D1236C97
:103A80009BB12046984710E0A36C73B1204698473D
:103A90000BE01A6812F4807F03D11A6822F0080242
:103AA0001A60236C0BB120469847E26D20239340A7
:103AB000334255D02268126812F0100F50D0BB600C
:103AC00094F83530DBB2052B0ED023681A6812F457
:103AD000802F33D01B6813F4002F2AD1636C002B86
:103AE0003ED0204698473BE02268136823F0160337
:103AF00013602268536923F080035361236CA3B1E0
:103B00002268136823F008031360E26D3F2393409B
:103B1000BB60012384F83530002384F83430236DF2
:103B2000002B3FD0204698473CE0A36C002BE7D108
:103B3000EBE7E36BA3B12046984711E01A6812F453
:103B4000807F09D11A6822F010021A60012384F8DC
:103B50003530002384F83430E36B0BB120469847AE
:103B6000636DFBB1636D13F0010F17D0052384F86B
:103B700035302268136823F001031360019B013381
:103B80000193AB4204D823681B6813F0010FF5D1F1
:103B9000012384F83530002384F83430E36C0BB112
:103BA0002046984703B0F0BD00000020B5814E1BB1
:103BB00090F835007047000010B40A490C6924F4ED
:103BC00040740C610C6944F440740C610C6944F05D
:103BD00001040C610260BFF36F8F43605DF8044B1A
:103BE000704700BF003C0240074B1A6922F4407244
:103BF0001A611A6942F400721A611A6942F00102EC
:103C00001A610160704700BF003C0240074B1A690F
:103C100022F440721A611A6942F480721A611A69B8
:103C200042F001021A610180704700BF003C02406F
:103C3000064B1A6922F440721A611A691A611A69EC
:103C400042F001021A610170704700BF003C02405F
:103C5000204BDB6813F0100F07D01F4AD36943F0E5
:103C60001003D3611B4B1022DA601A4BDB6813F090
:103C7000200F07D0184AD36943F00803D361154BCE
:103C80002022DA60134BDB6813F0400F07D0124A92
:103C9000D36943F00403D3610E4B4022DA600D4B2D
:103CA000DB6813F0800F07D00B4AD36943F002039F
:103CB000D361084B8022DA60064BDB6813F0020FF9
:103CC00007D0054AD36943F02003D361014B022298
:103CD000DA607047003C02409C100020094B1B69D1
:103CE000002B01DB00207047064B074A5A6002F1A7
:103CF00088325A601B69002B01DB002070470120CD
:103D0000704700BF003C024023016745034A136926
:103D100043F0004313610020704700BF003C0240A5
:103D200038B50446144B0022DA61FEF767FF0546FA
:103D3000124BDB6813F4803F0AD0B4F1FF3FF7D099
:103D400024B1FEF75BFF401BA042F1D903200DE038
:103D50000A4BDB6813F0010F02D0084B0122DA6036
:103D6000064BDB6813F0F20F01D1002038BDFFF7DE
:103D70006FFF0120FAE700BF9C100020003C0240CA
:103D8000F8B516461B4A127E012A30D004460D466D
:103D90001F46184B01221A764CF25030FFF7C0FF35
:103DA00090B9ACB1012C18D0022C1BD032463B4646
:103DB0002846FFF701FF4CF25030FFF7B1FF0E4AE3
:103DC000136923F0010313610A4B00221A76F8BD30
:103DD000F1B22846FFF72CFFEDE7B1B22846FFF716
:103DE00015FFE8E731462846FFF7FEFEE3E702202D
:103DF000EDE700BF9C100020003C0240074B196912
:103E000021F440711961196941F0040119611A69BD
:103E100042EA002242F480321A617047003C0240BC
:103E200049B1012921D0022902D04FF4407C04E09D
:103E30004FF4007C01E04FF0000C0D4B196921F4A8
:103E4000407119611A6942EA0C021A611A6922F07A
:103E5000F8021A611A6942EAC00040F002001861D3
:103E60001A6942F480321A6170474FF4807CE4E7AB
:103E7000003C0240164B1B6813F4007F10D0144B1B
:103E80001A6822F400721A601A6842F400621A601A
:103E90001A6822F400621A601A6842F400721A600A
:103EA0000B4B1B6813F4806F10D0094B1A6822F477
:103EB00080621A601A6842F480521A601A6822F40A
:103EC00080521A601A6842F480621A60704700BF1C
:103ED000003C0240F8B5224B1B7E012B3ED004462D
:103EE0000E461F4B01221A764CF25030FFF718FF96
:103EF000074670BB4FF0FF3333602368012B16D0A9
:103F0000A568E368A2681344AB4220D9217C284607
:103F1000FFF786FF4CF25030FFF702FF114A13699A
:103F200023F0FA031361074680B90135E9E76168B8
:103F3000207CFFF763FF4CF25030FFF7F1FE07469D
:103F4000084A136923F00403136100E03560FFF7AA
:103F500091FF034B00221A763846F8BD0227FBE793
:103F60009C100020003C024000230F2B00F2E48054
:103F700070B582B060E085685E000324B44025EA35
:103F80000405CC68B4402C438460456825EA0205EA
:103F90004C68C4F300129A402A4342605AE0DC089D
:103FA000083450F8246003F0070295000F22AA405D
:103FB00026EA020E0A69AA4042EA0E0240F82420CC
:103FC0005CE0072200E0002202FA0EF22A430234EB
:103FD0005A4D45F824205A4A94686FEA0C0224EAA4
:103FE0000C054E6816F4801F01D04CEA0405544CB1
:103FF000A560E46802EA04054E6816F4001F01D0CB
:104000004CEA04054E4CE560646802EA04054E681B
:1040100016F4003F01D04CEA0405494C6560246861
:1040200022404D6815F4803F01D04CEA0402444C14
:10403000226001330F2B7DD801229A400C6804EADC
:10404000020C32EA0404F4D14C6804F00304013C8D
:10405000012C90D94A6802F00302032A09D0C468EF
:104060005D000322AA4024EA02048A68AA4022438F
:10407000C2604A6802F00302022A90D004684FEA44
:10408000430E032202FA0EF224EA02044A6802F006
:10409000030202FA0EF2224302604A6812F4403F21
:1040A000C7D000220192274A546C44F480445464DF
:1040B000526C02F480420192019A9C08A51C1F4A8E
:1040C00052F8255003F003024FEA820E0F2202FA43
:1040D0000EF225EA02051C4A90423FF474AF02F545
:1040E000806290421AD002F58062904218D002F5A8
:1040F0008062904216D002F58062904214D002F5A0
:104100008062904212D002F58062904210D002F597
:10411000806290423FF455AF082255E7012253E7F1
:10412000022251E703224FE704224DE705224BE725
:10413000062249E702B070BD704700BF0038014059
:10414000003C014000380240000002400AB1816199
:10415000704709048161704708B5054B5B690342EC
:1041600000D108BD024B586108F050F9F9E700BFD3
:10417000003C014003685A6912F4806F01D10020AD
:1041800070476FF480625A6100230363202280F835
:104190003D2080F83E30026C42F00402026480F858
:1041A0003C30012070472DE9F04107460D4690460E
:1041B0001E4624E0FEF722FD069BC01AB04200D83E
:1041C000EEB900233B63202287F83D2087F83E307C
:1041D0003A6C42F020023A6487F83C3001201EE03D
:1041E0003B689C6925EA040C1FFA8CFCBCFA8CFC29
:1041F0004FEA5C1CE04511D1B6F1FF3FDAD1C5F3BF
:104200000743012BECD13B685B6925EA030C1FFADD
:104210008CFCBCFA8CFC4FEA5C1CEBE70020BDE890
:10422000F0812DE9F04105460E46174698463DE0DF
:104230001A6842F400721A602B686FF480625A6147
:1042400000232B63202285F83D2085F83E302A6C20
:1042500042F004022A6485F83C30012034E0FEF785
:10426000CDFCA0EB0800B84200D8FFB900232B63B7
:10427000202285F83D2085F83E302A6C42F020024D
:104280002A6485F83C3001201EE02B689C6926EAF0
:104290000404A4B2003C18BF0124A4B12B685A69DD
:1042A00012F4806FC4D1B7F1FF3FD8D1C6F30743F2
:1042B000012BEAD12B685C6926EA0404A4B2003C15
:1042C00018BF0124E9E70020BDE8F08170B504467D
:1042D0000D46164623685B6913F0800F1CD12046FB
:1042E000FFF748FFD0B9B5F1FF3FF3D0FEF786FCEA
:1042F000801BA84201D8002DECD10023236320228B
:1043000084F83D2084F83E30226C42F02002226482
:1043100084F83C30012000E0002070BD0120FCE763
:104320002DE9F04385B004460D4691461F46DDF861
:1043300030800D9E0368196841F480711960009601
:10434000434600224FF00111FFF72DFF60B92368AB
:1043500005F0FE051D613346424626492046FFF71B
:1043600060FF68B1012008E023681B6813F4807FB8
:1043700002D04FF400732364032005B0BDE8F0833E
:104380000023039323685A6903929B690393039B59
:10439000324641462046FFF799FF30B9012F0FD131
:1043A00023685FFA89F61E61E7E7236C042B01D0CE
:1043B0000120E2E72268136843F400731360F7E713
:1043C00023684FEA19221A61324641462046FFF718
:1043D0007DFF20B923685FFA89F61E61CDE7236C63
:1043E000042B01D00120C8E72268136843F400734E
:1043F0001360F7E7020001002DE9F04784B004469E
:104400000D46164699460C9FDDF834800268136805
:1044100043F4806313600368196841F48071196084
:10442000CDF800803B4600224FF00111FFF7BBFEA4
:1044300070B95FFA85FA236805F0FE051D614346F1
:104440003A4641492046FFF7ECFE68B1012008E0FA
:1044500023681B6813F4807F02D04FF40073236439
:10446000032004B0BDE8F0870023039323685A6952
:1044700003929B690393039B424639462046FFF70C
:1044800025FF80B9B9F1010F18D12368F6B21E617A
:10449000424639462046FFF719FF68B3236C042BC8
:1044A00024D00120DDE7236C042B01D00120D8E7C4
:1044B0002268136843F400731360F7E72368320A35
:1044C0001A61424639462046FFF700FF18B92368B3
:1044D000F6B21E61DCE7236C042B01D00120C0E79B
:1044E0002268136843F400731360F7E722681368C7
:1044F00043F400731360D4E72268136843F48073B5
:104500001360CDF800803B4600224FF00111204699
:10451000FFF749FE68B922684AF001031361434678
:104520003A4609492046FFF77CFE002899D0012031
:1045300097E723681B6813F4807F02D04FF4007361
:10454000236403208DE700BF0200010070B504461C
:104550000D46164623685B6913F0040F1CD12046F4
:10456000FFF708FED0B9B5F1FF3FF3D0FEF746FBE9
:10457000801BA84201D8002DECD100232363202208
:1045800084F83D2084F83E30226C42F02002226400
:1045900084F83C30012000E0002070BD0120FCE7E1
:1045A00070B505460C4616462B68596911F0400F48
:1045B00029D1596911F0100F15D1FEF71FFB801B8F
:1045C000A04201D8002CEFD100232B63202285F8D4
:1045D0003D2085F83E302A6C42F020022A6485F89E
:1045E0003C30012070BD6FF010025A6100232B6334
:1045F000202285F83D2085F83E302A6C2A6485F813
:104600003C300120EEE70020ECE70000002800F03D
:10461000CC8070B5044690F83D30002B77D0242331
:1046200084F83D302268136823F001031360226888
:10463000136843F4004313602268136823F40043B3
:10464000136001F053FC62685A4B9A4264D85A4B8B
:1046500098428CBF00230123002B40F0A8805749CB
:10466000A1FB00318B0C25686A6822F03F0242EA08
:1046700091426A6021680A6A22F03F0266684D4DE5
:10468000AE424FD8013313430B622168CA6922F44A
:104690004F4222F0FF026668464B9E424CD8431EB2
:1046A0007600B3FBF6F3013340F6FC70034278D09A
:1046B000C3F30B031343CB6121680B6823F0C003E2
:1046C000E269206A024313430B6021688B6823F47C
:1046D000034323F0FF032269E068024313438B6026
:1046E0002168CB6823F0FF036269A069024313438A
:1046F000CB602268136843F001031360002020643C
:10470000202384F83D30206384F83E0070BD80F89B
:104710003C30FDF745F982E7294B98428CBF0023D6
:10472000012399E74FF4967505FB03F3254DA5FB8F
:1047300003539B090133A6E7A368BBB9451E06EBEB
:10474000460CB5FBFCF50135C5F30B05B5FA85F54F
:104750006D0945BBC3B9013806EB4603B0FBF3F363
:104760000133C3F30B0343F40043A3E7451E06EBF9
:10477000860C0CEB8C0CB5FBFCF50135C5F30B0579
:10478000B5FA85F56D09E4E7013806EB860303EB1E
:104790008303B0FBF3F30133C3F30B0343F4404350
:1047A00088E7042386E7012384E70120704701207E
:1047B000ACE700BFA08601007F841E0083DE1B43A0
:1047C000FF083D00D34D62102DE9F04383B004464D
:1047D0000F46904699460C9EFEF710FA054694F84F
:1047E0003D00C0B2202803D0022003B0BDE8F08312
:1047F0000095192301224B492046FFF7D4FC0028DD
:1048000040F0898094F83C30012B00F08680012331
:1048100084F83C3023681A6812F0010F03D11A683B
:1048200042F001021A602268136823F400631360E7
:10483000212384F83D30402384F83E300023236454
:104840000A9B6362BDF82C306385638D2385364BEC
:10485000E362019500964B46424639462046FFF7F3
:104860005FFD00285BD1238D002B35D02A463146D1
:104870002046FFF72BFD20BB626A236812781A617D
:10488000626A531C6362218D013989B22185638D6F
:104890009BB2013B9BB263852368586910F0040FFB
:1048A000E1D00029DFD052781A61636A0133636274
:1048B000238D013B2385638D9BB2013B9BB26385B6
:1048C000D1E7236C042B01D001208EE72268136806
:1048D00043F400731360F7E72A4631462046FFF79A
:1048E00035FE50B1236C042B01D001207DE72268F6
:1048F000136843F400731360F7E72268136843F406
:1049000000731360202384F83D30002384F83E3088
:1049100084F83C3069E7022067E7022065E7012060
:1049200063E700BF020010000000FFFF2DE9F04325
:1049300087B004460F4690469946109EFEF75EF9F2
:10494000054694F83D00C0B2202804D0022738461E
:1049500007B0BDE8F083009519230122884920465D
:10496000FFF721FC002840F0438194F83C30012BF4
:1049700000F04081012384F83C3023681A6812F06B
:10498000010F03D11A6842F001021A60226813680D
:1049900023F400631360222384F83D30402384F81D
:1049A0003E30002323640E9B6362BDF83C30638578
:1049B000638D2385734BE362019500964B46424617
:1049C00039462046FFF718FD0746002840F01481BD
:1049D000238D5BB9029323685A6902929A69029205
:1049E000029A1A6842F400721A6075E0012B0AD02C
:1049F000022B1AD00023059323685A6905929B69FC
:104A00000593059B68E02268136823F480631360B4
:104A10000023039323685A6903929A690392039AC5
:104A20001A6842F400721A6056E02268136823F490
:104A3000806313602268136843F4006313600023EB
:104A4000049323685A6904929B690493049B43E08E
:104A50002A4631462046FFF7A3FD002840F0CE80CD
:104A600023681A69636A1A70636A01336362238D6B
:104A7000013B2385638D9BB2013B9BB263852BE099
:104A800000953346002240492046FFF78CFB002862
:104A900040F0B6802268136843F400731360236803
:104AA0001A69636A1A70626A531C6362238D013B40
:104AB0002385638D9BB2013B9BB2638523681B6991
:104AC0005370636A01336362238D013B2385638DD9
:104AD0009BB2013B9BB26385238D002B7FD0032BC0
:104AE00054D8012BB4D0022BCAD0009533460022F3
:104AF00025492046FFF757FB002840F083802268B5
:104B0000136823F48063136023681A69636A1A7058
:104B1000636A01336362238D013B2385638D9BB2FE
:104B2000013B9BB26385009533460022164920461F
:104B3000FFF739FB002867D12268136843F400733C
:104B4000136023681A69636A1A70626A531C63628D
:104B5000238D013B2385638D9BB2013B9BB2638513
:104B600023681B695370636A01336362238D013BC1
:104B70002385638D9BB2013B9BB26385ACE700BF8D
:104B8000020010000000FFFF040001002A46314629
:104B90002046FFF705FD002838D123681A69636AAB
:104BA0001A70626A531C6362238D013B2385638DF7
:104BB0009BB2013B9BB263852368596911F0040FD6
:104BC0008AD01B695370636A01336362238D013B92
:104BD0002385638D9BB2013B9BB263857CE72023D9
:104BE00084F83D30002384F83E3084F83C30AEE653
:104BF0000227ACE60227AAE60127A8E60127A6E6D7
:104C00000127A4E60127A2E60127A0E601279EE6E8
:104C10002DE9F04383B0D0F8008001EBC10300EB35
:104C20008303DA6D5B6D9A4254D807460C469B1A93
:104C300001EBC10200EB8202926C9A4200D31A4649
:104C400002F103094FEA990915E006F103094FEA59
:104C5000990904EBC40507EB8505E96C3B7C0093DF
:104C6000B3B2E2B2404602F0C8FCEB6C3344EB64F2
:104C7000EB6D3344EB6508EB441303F510639B695C
:104C80009BB24B4512D304EBC40207EB8202D16DF9
:104C9000536D99420AD24BB15B1A04EBC40207EB85
:104CA0008202966C9E42D0D31E46CEE704EBC4002F
:104CB00007EB80077A6DFB6D9A420FD804F00F0462
:104CC0000123A340D8F8344824EA0304C8F8344840
:104CD000002000E0012003B0BDE8F0830020FAE7E7
:104CE00070B58AB0002800F090800546046890F8FE
:104CF000BD343BB3032385F8BD34E36B13F4807FED
:104D000001D100232B61286802F092F92C4654F857
:104D1000106BEC460FCCACE80F000FCCACE80F00EA
:104D200094E803008CE803002B1D0ECB304602F004
:104D3000C1F8044658B1022385F8BD340124204649
:104D40000AB070BD80F8BC3405F0E8FCD2E7002161
:104D5000286802F069FE234616E003EBC30205EB68
:104D60008202012182F83D1082F83C30A2F84430E2
:104D7000002182F840109164D16403EBC30205EB7B
:104D8000820251650133DBB269688B42E5D316E0DC
:104D900004EBC40305EB8303002283F87D2283F830
:104DA0007C4283F88022C3F88822C3F88C2204EB6B
:104DB000C40305EB8303C3F894220134E4B2A14297
:104DC000E6D82C4654F8106BEC460FCCACE80F003C
:104DD0000FCCACE80F0094E803008CE803002B1D17
:104DE0000ECB304602F080F9044620B1022385F84C
:104DF000BD340124A3E7002385F83830012385F86A
:104E0000BD34286802F0CDFD99E7012497E70268D8
:104E100090F8BC34012B19D010B50446012380F85A
:104E2000BC34836A012B09D0206802F0FBF82068AB
:104E300002F0A9FD002084F8BC0410BD8369012B99
:104E4000F2D0936B43F480339363EDE70220704715
:104E500070B504460D460068066C00EB411303F57F
:104E600030639A682169012911D038498E4256D0A1
:104E70003DB905EBC50304EB8303D3F89432002B53
:104E80005ED0E9B2204605F093FC002070BD12F020
:104E9000080F09D02E498E42F7D912F4004FF4D0F2
:104EA0004FF400429A60F0E712F0200F02D0202267
:104EB0009A60EAE712F0280FE7D125498E4206D919
:104EC00012F4004F03D04FF400429A60DDE705EB87
:104ED000C50204EB8202D2F898121B69C3F31203D5
:104EE000CB1AC2F89C327DB905EBC50204EB8202F5
:104EF000D2F894226AB105EBC50204EB8202D2F823
:104F00008C120B44C2F88C32E9B2204605F050FCFA
:104F1000BBE704F2C442012102F0C8FDF4E712F439
:104F2000004F03D04FF400429A60AEE712F0200F1A
:104F300001D020229A60E9B2204605F039FCA4E7AE
:104F400004F2C442002102F0B1FD9AE70A31544F45
:104F50000A30544F38B5044603681D6C03EB411307
:104F6000D3F8081B0E4A954207D903F5306311F4B4
:104F7000004F02D04FF400429A60204605F010FC2A
:104F8000074B9D4202D92369012B01D0002038BD77
:104F900004F2C4420121206802F088FDF6E700BF58
:104FA0000A30544F90F8BC34012B0DD010B5044694
:104FB000012380F8BC3480F83810006802F0D3FC7C
:104FC000002084F8BC0410BD0220704738B50546A7
:104FD0008C4611F0800F29D101F00F0E0EEBCE049C
:104FE000A40004F51E740444211D0EEBCE0E00EB4C
:104FF0008E0E00208EF87D020CF00F0C81F800C0A0
:10500000CA600B714A780AB1A1F808C0022B1DD002
:1050100095F8BC34012B1CD0012385F8BC342868DA
:1050200002F03BF9002085F8BC0438BD01F00F0008
:1050300000EBC001890038312944043100EBC00085
:1050400005EB8000012480F83D40D5E700234B713B
:10505000DEE70220E9E710B504460A4611F0800FAA
:1050600020D101F00F0000EBC0039B0003F51E737D
:105070002344191D00EBC00004EB8000002380F8DE
:105080007D3202F00F020A7094F8BC34012B19D063
:10509000012384F8BC34206802F04EF9002084F823
:1050A000BC0410BD01F00F0000EBC0039B003833BF
:1050B0002344191D00EBC00004EB8000012380F89D
:1050C0003D30DEE70220ECE710B501F00F0404EB01
:1050D000C401890001F51E710144043104EBC40CC4
:1050E00000EB8C0CCCF88C22CCF894320023CCF85A
:1050F0009C328CF87D328CF87C420369012B06D0FF
:1051000064B9DAB2006802F087F9002010BD04EB40
:10511000C40C00EB8C0CCCF89022F1E7DAB20068FA
:1051200002F082FAF1E701F00F0101EBC10100EB9F
:105130008101D1F89C02704710B501F00F0404EB17
:10514000C401890038310144043104EBC40C00EB84
:105150008C0CCCF84C20CCF854300023CCF85C30CC
:1051600001238CF83D308CF83C400369012B06D0BC
:1051700064B9DAB2006802F04FF9002010BD04EB08
:10518000C40C00EB8C0CCCF85020F1E7DAB20068CC
:1051900002F04AFAF1E738B501F00F05426895428E
:1051A00039D804460B4611F0800F1FD101EBC10125
:1051B000890001F51E710144043103EBC30300EBC8
:1051C0008303002283F87D2201238B700D7094F8F5
:1051D000BC34012B21D0012384F8BC34206802F0B8
:1051E00067FB8DB1002084F8BC0438BD05EBC50118
:1051F000890038310144043105EBC50300EB83031A
:10520000012283F83D20DFE704F2C442217C2068BC
:1052100002F04CFCE6E70120E7E70220E5E701F0B9
:105220000F034268934231D810B5044611F0800F45
:105230001ED103EBC301890001F51E710144043145
:1052400003EBC30200EB8202002082F87D02002201
:105250008A700B7094F8BC34012B19D0012384F8A8
:10526000BC34206802F051FB002084F8BC0410BD5F
:1052700003EBC301890038310144043103EBC3025D
:1052800000EB8202012082F83D00E0E70120704738
:105290000220ECE708B511F0800F0CD101F00F01EE
:1052A00001EBC101890001F51E7101440431006860
:1052B00002F044F908BD01F00F0101EBC1018900C2
:1052C000383101440431F2E72DE9F04F83B0044650
:1052D0000568284602F0A4FB10B103B0BDE8F08FCA
:1052E0000646206802F06BFB0028F6D005F5006743
:1052F000BB68C3F30D23C4F8FC34206802F05FFBE5
:1053000010F0020F04D02268536903F002035361C6
:10531000206802F054FB10F0100F13D0226893693C
:1053200023F010039361D5F8208008F00F09C8F32B
:105330004343022B4BD0062B6FD02268936943F076
:1053400010039361206802F03AFB10F4002F76D12D
:10535000206802F034FB10F4802F40F0E0802068D9
:1053600002F02DFB0028C0F26381206802F027FBC9
:1053700010F4006F09D0BB6813F0010F40F070818A
:105380002268536903F400635361206802F017FB3D
:1053900010F4805F40F06881206802F010FB10F488
:1053A000005F40F0B581206802F009FB10F0080FA3
:1053B00040F0C681206802F002FB10F0800F00F080
:1053C000D981AB6923F08003AB610126C2E147F6C6
:1053D000F07318EA030FB0D04FEA181B4FEAC90365
:1053E000019309EBC90A04EB8A0AC8F30A12DAF836
:1053F0008C12284602F032FACBF30A0BDAF88C3220
:105400005B44CAF88C32019B4B4404EB8303D3F812
:105410009C325B44CAF89C328FE7082204F2C441F4
:10542000284602F01BFAC8F30A1809EBC90204EB7C
:105430008202D2F89C324344C2F89C327DE7206855
:1054400002F0C1FA8046B14635E005EB491301226E
:10545000C3F8082B49462046FFF7FAFC3CE005EB71
:1054600049130822C3F8082B49462046FFF772FD6E
:1054700035E009EBC90304EB830393F87F32012B7A
:1054800041D005EB49130222C3F8082B1AF0200F74
:1054900004D005EB49132022C3F8082B1AF4005F4F
:1054A00005D005EB49134FF40052C3F8082B09F15E
:1054B00001094FEA5808B8F1000F3FF449AF18F05E
:1054C000010FF4D05FFA89FB5946206802F08BFA8D
:1054D000824610F0010FB8D11AF0080FBFD11AF0B0
:1054E000100F04D005EB49131022C3F8082B1AF053
:1054F000020FCBD06B6913F0800FBAD07B6843F4F6
:1055000080637B60B5E709EBC90304EB83030022EA
:1055100083F87F225946204605F09CF9B1E72068C0
:1055200002F059FA8046B14625E05946204605F07A
:105530004BF91AF0080F04D005EB49130822C3F801
:1055400008291AF0100F04D005EB49131022C3F8F4
:1055500008291AF0400F04D005EB49134022C3F884
:1055600008291AF0020F40D11AF0800F5BD109F11F
:1055700001094FEA5808B8F1000F3FF4F0AE18F0F7
:10558000010FF4D05FFA89FB5946206802F034FA23
:10559000824610F0010FCCD009F00F03012101FA6F
:1055A00003F27B6B23EA02037B6305EB4913C3F829
:1055B000081923698B42B8D109EBC90304EB8303B3
:1055C000996CDA6C0A44DA64B9F1000FADD109EBD9
:1055D000C90304EB83035B6D002BA6D104F2C44224
:1055E0000121206802F062FA9FE74946284601F04F
:1055F00025FD09EBC90304EB830393F83F30012B2E
:1056000005D005EB49130222C3F80829ACE709EBE2
:10561000C90304EB8303002283F83F205946204648
:1056200005F01EF9EDE749462046FFF7F1FA9EE73F
:105630007B6823F001037B6094F8F434012B08D0DD
:10564000204605F001F92268536903F000435361D5
:105650008BE6002184F8F414204600F041F9F2E7CB
:10566000204605F0D9F88BE67B6823F001037B60C8
:105670001021206801F0E2FC1AE005EB46134FF61A
:105680007F31C3F80819D3F8002922F40012C3F8B7
:105690000029C3F8081BD3F8002B22F40012C3F82A
:1056A000002BD3F8002B42F00062C3F8002B013628
:1056B0006368B342E1D8FB6943F00113FB61236BDC
:1056C000DBB1D7F8843043F00B03C7F884307B6C30
:1056D00043F00B037B64D5F8003823F4FE63C5F870
:1056E000003804F2C442217C206802F0DFF922680D
:1056F000536903F4805353614EE67B6943F40053CE
:1057000043F02B037B613B6943F00B033B61E2E712
:10571000206802F0BAF9206801F0AEFDE06026686A
:1057200000F0DEFB0146227B304601F009FC2046FA
:1057300005F05BF82268536903F40053536132E6C5
:10574000204605F04CF82268536903F008035361C2
:1057500030E601366368B3420CD906EBC60304EBAE
:10576000830393F87F32012BF3D1F1B22046FFF788
:1057700091FDEEE7206802F022F910F4801F27D196
:10578000206802F01CF910F4001F5BD0012328E010
:1057900001366368B3421DD905EB4613D3F80029DF
:1057A00006EBC60304EB830393F84030012BEFD1E3
:1057B000002AEDDA06EBC60304EB8303012283F82B
:1057C0003F2066F07F01C9B22046FFF763FDDFE7A7
:1057D0000126DEE72268536903F480135361CFE7A3
:1057E000013362689A4228D905EB4312D2F8001BB4
:1057F00003EBC30204EB820292F88022012AEFD16C
:105800000029EDDA01F48031D4F8FC2402F0010221
:105810009142E5D103EBC30204EB8202012182F83D
:105820007F12AA6942F08002AA616A6912F0800FB1
:10583000D6D17B6843F400737B602268536903F41C
:1058400000135361206802F0BAF810F0804F10D1B5
:10585000206802F0B4F810F0040F3FF43EAD236866
:105860005D6815F0040F0DD1226853682B43536017
:1058700033E5204604F0FAFF2268536903F08043C1
:105880005361E5E7204604F0F7FFEDE710B4046844
:10589000606A31B940EA0240A06200205DF8044B22
:1058A00070478C46A36A00EB1340002308E003F125
:1058B000400104EB8101496800EB11400133DBB288
:1058C0000CF1FF318B42F2D340EA02400CF13F0170
:1058D00004EB81014860E0E70368596200207047EB
:1058E00070470000002800F0E08170B582B00446E7
:1058F000036813F0010F3BD09F4B9B6803F00C0330
:10590000042B2CD09C4B9B6803F00C03082B21D05C
:105910006368B3F5803F4FD0B3F5A02F52D0964BBC
:105920001A6822F480321A601A6822F480221A60FF
:105930006368002B50D0FDF761F905468E4B1B685C
:1059400013F4003F14D1FDF759F9401B6428F5D931
:105950000320B1E1884B5B6813F4800FD8D0864BED
:105960001B6813F4003F03D06368002B00F09F8195
:10597000236813F0020F54D07F4B9B6813F00C0F79
:105980003ED07D4B9B6803F00C03082B33D0E368BB
:10599000002B68D0794B01221A60FDF72FF90546DC
:1059A000754B1B6813F0020F54D1FDF727F9401B0C
:1059B0000228F5D903207FE16F4A136843F480334E
:1059C0001360B5E76C4B1A6842F480221A601A68BB
:1059D00042F480321A60ABE7FDF710F90546664BDA
:1059E0001B6813F4003FC3D0FDF708F9401B64287F
:1059F000F5D9032060E1604B5B6813F4800FC6D1DA
:105A00005D4B1B6813F0020F03D0E368012B40F0DD
:105A10005081594A136823F0F803216943EAC1030E
:105A20001360236813F0080F42D063696BB3534BC4
:105A30000122C3F8802EFDF7E1F805464E4B5B6F5F
:105A400013F0020F34D1FDF7D9F8401B0228F5D925
:105A5000032031E1484A136823F0F803216943EA3F
:105A6000C1031360DDE7454B00221A60FDF7C6F85D
:105A70000546414B1B6813F0020FD2D0FDF7BEF86C
:105A8000401B0228F5D9032016E13C4B0022C3F845
:105A9000802EFDF7B3F80546374B5B6F13F0020F0E
:105AA00006D0FDF7ABF8401B0228F5D9032003E12F
:105AB000236813F0040F77D02F4B1B6C13F0805F1B
:105AC00033D1002301932C4B1A6C42F080521A649C
:105AD0001B6C03F080530193019B0125284B1B682D
:105AE00013F4807F23D0A368012B34D0052B38D04A
:105AF000214B1A6F22F001021A671A6F22F004027A
:105B00001A67A368002B3DD0FDF778F806461A4BBC
